{
  "contractName": "HelloWorld",
  "abi": [
    {
      "anonymous": false,
      "inputs": [
        {
          "indexed": false,
          "name": "name",
          "type": "bytes10"
        },
        {
          "indexed": false,
          "name": "amount",
          "type": "uint256"
        }
      ],
      "name": "HelloSaid",
      "type": "event"
    },
    {
      "constant": true,
      "inputs": [],
      "name": "sayHello",
      "outputs": [
        {
          "name": "",
          "type": "string"
        }
      ],
      "payable": false,
      "stateMutability": "pure",
      "type": "function"
    },
    {
      "constant": false,
      "inputs": [],
      "name": "emitHello",
      "outputs": [],
      "payable": false,
      "stateMutability": "nonpayable",
      "type": "function"
    }
  ],
  "bytecode": "0x608060405234801561001057600080fd5b506101c4806100206000396000f3fe60806040526004361061004c576000357c0100000000000000000000000000000000000000000000000000000000900463ffffffff1680637b3ab2d014610051578063ef5fb05b14610068575b600080fd5b34801561005d57600080fd5b506100666100f8565b005b34801561007457600080fd5b5061007d61015b565b6040518080602001828103825283818151815260200191508051906020019080838360005b838110156100bd5780820151818401526020810190506100a2565b50505050905090810190601f1680156100ea5780820380516001836020036101000a031916815260200191505b509250505060405180910390f35b7fab4299a26565189e054cc121f3f5a72df4e701e8b3c24a8b2d7dc3394bd09556610f0a60405180807f4a6f686e20536e6f77000000000000000000000000000000000000000000000081525060200182815260200191505060405180910390a1565b60606040805190810160405280600b81526020017f68656c6c6f20776f726c6400000000000000000000000000000000000000000081525090509056fea165627a7a723058209d498f2aa9b5097ee1fa1a779db81ac50a6887f498767584d70d7a02a7ba73720029",
  "source": "pragma solidity >=0.4.21 <0.6.0;\n\ncontract HelloWorld {\n    event HelloSaid(bytes10 name, uint256 amount);\n\n    function sayHello() public pure returns (string memory) {\n        return(\"hello world\");\n    }\n\n    function emitHello() public {\n        emit HelloSaid(\"John Snow\", 3850);\n    }\n}\n",
  "sourcePath": "/Users/talkol/go/src/github.com/orbs-network/orbs-network-go/vendor/github.com/orbs-network/orbs-contract-sdk/go/examples/ethereum/test/EthereumContract/contracts/HelloWorld.sol",
  "compiler": {
    "name": "solc",
    "version": "0.5.0+commit.1d4f565a.Emscripten.clang"
  },
  "schemaVersion": "3.0.0",
  "updatedAt": "2018-12-24T00:29:22.106Z",
  "devdoc": {
    "methods": {}
  },
  "userdoc": {
    "methods": {}
  }
}